{
  "_format": "hh-sol-artifact-1",
  "contractName": "MarketPlaceProducts",
  "sourceName": "contracts/MarketPlaceProducts.sol",
  "abi": [
    {
      "anonymous": false,
      "inputs": [
        {
          "indexed": false,
          "internalType": "string",
          "name": "name",
          "type": "string"
        },
        {
          "indexed": false,
          "internalType": "bool",
          "name": "sold",
          "type": "bool"
        },
        {
          "indexed": false,
          "internalType": "address payable",
          "name": "owner",
          "type": "address"
        },
        {
          "indexed": false,
          "internalType": "uint256",
          "name": "price",
          "type": "uint256"
        }
      ],
      "name": "BuyProduct",
      "type": "event"
    },
    {
      "anonymous": false,
      "inputs": [
        {
          "indexed": false,
          "internalType": "string",
          "name": "name",
          "type": "string"
        },
        {
          "indexed": false,
          "internalType": "string",
          "name": "description",
          "type": "string"
        },
        {
          "indexed": false,
          "internalType": "string",
          "name": "image",
          "type": "string"
        },
        {
          "indexed": false,
          "internalType": "bool",
          "name": "sold",
          "type": "bool"
        },
        {
          "indexed": false,
          "internalType": "address payable",
          "name": "owner",
          "type": "address"
        },
        {
          "indexed": false,
          "internalType": "uint256",
          "name": "price",
          "type": "uint256"
        },
        {
          "indexed": false,
          "internalType": "string",
          "name": "catagory",
          "type": "string"
        }
      ],
      "name": "CreateProduct",
      "type": "event"
    },
    {
      "inputs": [
        {
          "internalType": "uint256",
          "name": "_id",
          "type": "uint256"
        }
      ],
      "name": "buyProduct",
      "outputs": [],
      "stateMutability": "payable",
      "type": "function"
    },
    {
      "inputs": [],
      "name": "count",
      "outputs": [
        {
          "internalType": "uint256",
          "name": "",
          "type": "uint256"
        }
      ],
      "stateMutability": "view",
      "type": "function"
    },
    {
      "inputs": [
        {
          "internalType": "string",
          "name": "name",
          "type": "string"
        },
        {
          "internalType": "string",
          "name": "description",
          "type": "string"
        },
        {
          "internalType": "string",
          "name": "image",
          "type": "string"
        },
        {
          "internalType": "uint256",
          "name": "price",
          "type": "uint256"
        },
        {
          "internalType": "string",
          "name": "catagory",
          "type": "string"
        }
      ],
      "name": "createProduct",
      "outputs": [],
      "stateMutability": "nonpayable",
      "type": "function"
    },
    {
      "inputs": [],
      "name": "storeName",
      "outputs": [
        {
          "internalType": "string",
          "name": "",
          "type": "string"
        }
      ],
      "stateMutability": "view",
      "type": "function"
    },
    {
      "inputs": [
        {
          "internalType": "uint256",
          "name": "",
          "type": "uint256"
        }
      ],
      "name": "storeProducts",
      "outputs": [
        {
          "internalType": "uint256",
          "name": "id",
          "type": "uint256"
        },
        {
          "internalType": "string",
          "name": "name",
          "type": "string"
        },
        {
          "internalType": "string",
          "name": "description",
          "type": "string"
        },
        {
          "internalType": "string",
          "name": "image",
          "type": "string"
        },
        {
          "internalType": "bool",
          "name": "sold",
          "type": "bool"
        },
        {
          "internalType": "address payable",
          "name": "owner",
          "type": "address"
        },
        {
          "internalType": "uint256",
          "name": "price",
          "type": "uint256"
        },
        {
          "internalType": "string",
          "name": "catagory",
          "type": "string"
        }
      ],
      "stateMutability": "view",
      "type": "function"
    }
  ],
  "bytecode": "0x60806040526040518060400160405280601c81526020017f574f4f206d61726b6574706c61636520646563656e7472616c697a6500000000815250600090816200004a9190620002de565b5060006001553480156200005d57600080fd5b50620003c5565b600081519050919050565b7f4e487b7100000000000000000000000000000000000000000000000000000000600052604160045260246000fd5b7f4e487b7100000000000000000000000000000000000000000000000000000000600052602260045260246000fd5b60006002820490506001821680620000e657607f821691505b602082108103620000fc57620000fb6200009e565b5b50919050565b60008190508160005260206000209050919050565b60006020601f8301049050919050565b600082821b905092915050565b600060088302620001667fffffffffffffffffffffffffffffffffffffffffffffffffffffffffffffffff8262000127565b62000172868362000127565b95508019841693508086168417925050509392505050565b6000819050919050565b6000819050919050565b6000620001bf620001b9620001b3846200018a565b62000194565b6200018a565b9050919050565b6000819050919050565b620001db836200019e565b620001f3620001ea82620001c6565b84845462000134565b825550505050565b600090565b6200020a620001fb565b62000217818484620001d0565b505050565b5b818110156200023f576200023360008262000200565b6001810190506200021d565b5050565b601f8211156200028e57620002588162000102565b620002638462000117565b8101602085101562000273578190505b6200028b620002828562000117565b8301826200021c565b50505b505050565b600082821c905092915050565b6000620002b36000198460080262000293565b1980831691505092915050565b6000620002ce8383620002a0565b9150826002028217905092915050565b620002e98262000064565b67ffffffffffffffff8111156200030557620003046200006f565b5b620003118254620000cd565b6200031e82828562000243565b600060209050601f83116001811462000356576000841562000341578287015190505b6200034d8582620002c0565b865550620003bd565b601f198416620003668662000102565b60005b82811015620003905784890151825560018201915060208501945060208101905062000369565b86831015620003b05784890151620003ac601f891682620002a0565b8355505b6001600288020188555050505b505050505050565b6119c880620003d56000396000f3fe60806040526004361061004a5760003560e01c806306661abd1461004f57806332e086a11461007a578063521936e6146100a35780638642269e146100ce578063e36fe830146100ea575b600080fd5b34801561005b57600080fd5b5061006461012e565b6040516100719190610d1e565b60405180910390f35b34801561008657600080fd5b506100a1600480360381019061009c9190610ebf565b610134565b005b3480156100af57600080fd5b506100b861042a565b6040516100c59190611029565b60405180910390f35b6100e860048036038101906100e3919061104b565b6104b8565b005b3480156100f657600080fd5b50610111600480360381019061010c919061104b565b610a70565b6040516101259897969594939291906110d4565b60405180910390f35b60015481565b60008211610177576040517f08c379a000000000000000000000000000000000000000000000000000000000815260040161016e906111ba565b60405180910390fd5b60038551116101bb576040517f08c379a00000000000000000000000000000000000000000000000000000000081526004016101b290611226565b60405180910390fd5b600a8451116101ff576040517f08c379a00000000000000000000000000000000000000000000000000000000081526004016101f6906112b8565b60405180910390fd5b600a835111610243576040517f08c379a000000000000000000000000000000000000000000000000000000000815260040161023a9061134a565b60405180910390fd5b6001815111610287576040517f08c379a000000000000000000000000000000000000000000000000000000000815260040161027e906113dc565b60405180910390fd5b6001600081548092919061029a9061142b565b919050555060405180610100016040528060015481526020018681526020018581526020018481526020016000151581526020013373ffffffffffffffffffffffffffffffffffffffff16815260200183815260200182815250600260006001548152602001908152602001600020600082015181600001556020820151816001019081610328919061167f565b50604082015181600201908161033e919061167f565b506060820151816003019081610354919061167f565b5060808201518160040160006101000a81548160ff02191690831515021790555060a08201518160040160016101000a81548173ffffffffffffffffffffffffffffffffffffffff021916908373ffffffffffffffffffffffffffffffffffffffff16021790555060c0820151816005015560e08201518160060190816103db919061167f565b509050507fc3fac40c8daa81b4ded2f145c27d0acde798f71ad5cf9e230f9a5eed5c59dc31858585600033878760405161041b9796959493929190611751565b60405180910390a15050505050565b60008054610437906114a2565b80601f0160208091040260200160405190810160405280929190818152602001828054610463906114a2565b80156104b05780601f10610485576101008083540402835291602001916104b0565b820191906000526020600020905b81548152906001019060200180831161049357829003601f168201915b505050505081565b60006002600083815260200190815260200160002060405180610100016040529081600082015481526020016001820180546104f3906114a2565b80601f016020809104026020016040519081016040528092919081815260200182805461051f906114a2565b801561056c5780601f106105415761010080835404028352916020019161056c565b820191906000526020600020905b81548152906001019060200180831161054f57829003601f168201915b50505050508152602001600282018054610585906114a2565b80601f01602080910402602001604051908101604052809291908181526020018280546105b1906114a2565b80156105fe5780601f106105d3576101008083540402835291602001916105fe565b820191906000526020600020905b8154815290600101906020018083116105e157829003601f168201915b50505050508152602001600382018054610617906114a2565b80601f0160208091040260200160405190810160405280929190818152602001828054610643906114a2565b80156106905780601f1061066557610100808354040283529160200191610690565b820191906000526020600020905b81548152906001019060200180831161067357829003601f168201915b505050505081526020016004820160009054906101000a900460ff161515151581526020016004820160019054906101000a900473ffffffffffffffffffffffffffffffffffffffff1673ffffffffffffffffffffffffffffffffffffffff1673ffffffffffffffffffffffffffffffffffffffff16815260200160058201548152602001600682018054610724906114a2565b80601f0160208091040260200160405190810160405280929190818152602001828054610750906114a2565b801561079d5780601f106107725761010080835404028352916020019161079d565b820191906000526020600020905b81548152906001019060200180831161078057829003601f168201915b505050505081525050905060008160a0015190508160800151156107f6576040517f08c379a00000000000000000000000000000000000000000000000000000000081526004016107ed90611828565b60405180910390fd5b3373ffffffffffffffffffffffffffffffffffffffff168173ffffffffffffffffffffffffffffffffffffffff1603610864576040517f08c379a000000000000000000000000000000000000000000000000000000000815260040161085b90611894565b60405180910390fd5b8160c001513410156108ab576040517f08c379a00000000000000000000000000000000000000000000000000000000081526004016108a290611926565b60405180910390fd5b8073ffffffffffffffffffffffffffffffffffffffff166108fc349081150290604051600060405180830381858888f193505050501580156108f1573d6000803e3d6000fd5b50338260a0019073ffffffffffffffffffffffffffffffffffffffff16908173ffffffffffffffffffffffffffffffffffffffff16815250506001826080019015159081151581525050816002600085815260200190815260200160002060008201518160000155602082015181600101908161096e919061167f565b506040820151816002019081610984919061167f565b50606082015181600301908161099a919061167f565b5060808201518160040160006101000a81548160ff02191690831515021790555060a08201518160040160016101000a81548173ffffffffffffffffffffffffffffffffffffffff021916908373ffffffffffffffffffffffffffffffffffffffff16021790555060c0820151816005015560e0820151816006019081610a21919061167f565b509050507f5c486e06f32e8967d75263ff34842d4aee2d3c4252f800869d0d0e3a0e7356cf82602001516001338560c00151604051610a639493929190611946565b60405180910390a1505050565b6002602052806000526040600020600091509050806000015490806001018054610a99906114a2565b80601f0160208091040260200160405190810160405280929190818152602001828054610ac5906114a2565b8015610b125780601f10610ae757610100808354040283529160200191610b12565b820191906000526020600020905b815481529060010190602001808311610af557829003601f168201915b505050505090806002018054610b27906114a2565b80601f0160208091040260200160405190810160405280929190818152602001828054610b53906114a2565b8015610ba05780601f10610b7557610100808354040283529160200191610ba0565b820191906000526020600020905b815481529060010190602001808311610b8357829003601f168201915b505050505090806003018054610bb5906114a2565b80601f0160208091040260200160405190810160405280929190818152602001828054610be1906114a2565b8015610c2e5780601f10610c0357610100808354040283529160200191610c2e565b820191906000526020600020905b815481529060010190602001808311610c1157829003601f168201915b5050505050908060040160009054906101000a900460ff16908060040160019054906101000a900473ffffffffffffffffffffffffffffffffffffffff1690806005015490806006018054610c82906114a2565b80601f0160208091040260200160405190810160405280929190818152602001828054610cae906114a2565b8015610cfb5780601f10610cd057610100808354040283529160200191610cfb565b820191906000526020600020905b815481529060010190602001808311610cde57829003601f168201915b5050505050905088565b6000819050919050565b610d1881610d05565b82525050565b6000602082019050610d336000830184610d0f565b92915050565b6000604051905090565b600080fd5b600080fd5b600080fd5b600080fd5b6000601f19601f8301169050919050565b7f4e487b7100000000000000000000000000000000000000000000000000000000600052604160045260246000fd5b610da082610d57565b810181811067ffffffffffffffff82111715610dbf57610dbe610d68565b5b80604052505050565b6000610dd2610d39565b9050610dde8282610d97565b919050565b600067ffffffffffffffff821115610dfe57610dfd610d68565b5b610e0782610d57565b9050602081019050919050565b82818337600083830152505050565b6000610e36610e3184610de3565b610dc8565b905082815260208101848484011115610e5257610e51610d52565b5b610e5d848285610e14565b509392505050565b600082601f830112610e7a57610e79610d4d565b5b8135610e8a848260208601610e23565b91505092915050565b610e9c81610d05565b8114610ea757600080fd5b50565b600081359050610eb981610e93565b92915050565b600080600080600060a08688031215610edb57610eda610d43565b5b600086013567ffffffffffffffff811115610ef957610ef8610d48565b5b610f0588828901610e65565b955050602086013567ffffffffffffffff811115610f2657610f25610d48565b5b610f3288828901610e65565b945050604086013567ffffffffffffffff811115610f5357610f52610d48565b5b610f5f88828901610e65565b9350506060610f7088828901610eaa565b925050608086013567ffffffffffffffff811115610f9157610f90610d48565b5b610f9d88828901610e65565b9150509295509295909350565b600081519050919050565b600082825260208201905092915050565b60005b83811015610fe4578082015181840152602081019050610fc9565b60008484015250505050565b6000610ffb82610faa565b6110058185610fb5565b9350611015818560208601610fc6565b61101e81610d57565b840191505092915050565b600060208201905081810360008301526110438184610ff0565b905092915050565b60006020828403121561106157611060610d43565b5b600061106f84828501610eaa565b91505092915050565b60008115159050919050565b61108d81611078565b82525050565b600073ffffffffffffffffffffffffffffffffffffffff82169050919050565b60006110be82611093565b9050919050565b6110ce816110b3565b82525050565b6000610100820190506110ea600083018b610d0f565b81810360208301526110fc818a610ff0565b905081810360408301526111108189610ff0565b905081810360608301526111248188610ff0565b90506111336080830187611084565b61114060a08301866110c5565b61114d60c0830185610d0f565b81810360e083015261115f8184610ff0565b90509998505050505050505050565b7f7468652070726963652073686f756c64206265206d6f7265207468616e203000600082015250565b60006111a4601f83610fb5565b91506111af8261116e565b602082019050919050565b600060208201905081810360008301526111d381611197565b9050919050565b7f746865206e616d652073686f756c64206265206c6172676572207468616e2033600082015250565b6000611210602083610fb5565b915061121b826111da565b602082019050919050565b6000602082019050818103600083015261123f81611203565b9050919050565b7f746865206465736372697074696f6e2073686f756c64206265206c617267657260008201527f207468616e203130000000000000000000000000000000000000000000000000602082015250565b60006112a2602883610fb5565b91506112ad82611246565b604082019050919050565b600060208201905081810360008301526112d181611295565b9050919050565b7f74686520696d6167652073686f756c64206265206c6172676572207468616e2060008201527f3130000000000000000000000000000000000000000000000000000000000000602082015250565b6000611334602283610fb5565b915061133f826112d8565b604082019050919050565b6000602082019050818103600083015261136381611327565b9050919050565b7f7468652063617461676f72792073686f756c64206265206c617267657220746860008201527f616e203100000000000000000000000000000000000000000000000000000000602082015250565b60006113c6602483610fb5565b91506113d18261136a565b604082019050919050565b600060208201905081810360008301526113f5816113b9565b9050919050565b7f4e487b7100000000000000000000000000000000000000000000000000000000600052601160045260246000fd5b600061143682610d05565b91507fffffffffffffffffffffffffffffffffffffffffffffffffffffffffffffffff8203611468576114676113fc565b5b600182019050919050565b7f4e487b7100000000000000000000000000000000000000000000000000000000600052602260045260246000fd5b600060028204905060018216806114ba57607f821691505b6020821081036114cd576114cc611473565b5b50919050565b60008190508160005260206000209050919050565b60006020601f8301049050919050565b600082821b905092915050565b6000600883026115357fffffffffffffffffffffffffffffffffffffffffffffffffffffffffffffffff826114f8565b61153f86836114f8565b95508019841693508086168417925050509392505050565b6000819050919050565b600061157c61157761157284610d05565b611557565b610d05565b9050919050565b6000819050919050565b61159683611561565b6115aa6115a282611583565b848454611505565b825550505050565b600090565b6115bf6115b2565b6115ca81848461158d565b505050565b5b818110156115ee576115e36000826115b7565b6001810190506115d0565b5050565b601f82111561163357611604816114d3565b61160d846114e8565b8101602085101561161c578190505b611630611628856114e8565b8301826115cf565b50505b505050565b600082821c905092915050565b600061165660001984600802611638565b1980831691505092915050565b600061166f8383611645565b9150826002028217905092915050565b61168882610faa565b67ffffffffffffffff8111156116a1576116a0610d68565b5b6116ab82546114a2565b6116b68282856115f2565b600060209050601f8311600181146116e957600084156116d7578287015190505b6116e18582611663565b865550611749565b601f1984166116f7866114d3565b60005b8281101561171f578489015182556001820191506020850194506020810190506116fa565b8683101561173c5784890151611738601f891682611645565b8355505b6001600288020188555050505b505050505050565b600060e082019050818103600083015261176b818a610ff0565b9050818103602083015261177f8189610ff0565b905081810360408301526117938188610ff0565b90506117a26060830187611084565b6117af60808301866110c5565b6117bc60a0830185610d0f565b81810360c08301526117ce8184610ff0565b905098975050505050505050565b7f7468652070726f6475637420697320736f6c6400000000000000000000000000600082015250565b6000611812601383610fb5565b915061181d826117dc565b602082019050919050565b6000602082019050818103600083015261184181611805565b9050919050565b7f63616e206e6f742062757920796f75722070726f647563740000000000000000600082015250565b600061187e601883610fb5565b915061188982611848565b602082019050919050565b600060208201905081810360008301526118ad81611871565b9050919050565b7f74686520616d6f756e7420796f752073656e742064686f756c6420657175616c60008201527f2070726963650000000000000000000000000000000000000000000000000000602082015250565b6000611910602683610fb5565b915061191b826118b4565b604082019050919050565b6000602082019050818103600083015261193f81611903565b9050919050565b600060808201905081810360008301526119608187610ff0565b905061196f6020830186611084565b61197c60408301856110c5565b6119896060830184610d0f565b9594505050505056fea26469706673582212203b2912208f6f10b14e9eb28337348dac22695c0d7c85c60eac863d241a89fa3464736f6c63430008180033",
  "linkReferences": {},
  "deployedLinkReferences": {}
}